:020000040800F2
:10000000500400209D0100088B0E00083B0E0008E4
:10001000890E0008B9020008D7130008000000008C
:10002000000000000000000000000000910E000829
:10003000BB020008000000008D0E0008930E0008AF
:10004000B7010008B7010008B7010008B7010008B0
:10005000B70100088F0E0008B7010008B7010008BB
:10006000B7010008B7010008B7010008B701000890
:10007000B7010008B7010008B7010008B701000880
:10008000B7010008B7010008B7010008B701000870
:10009000B7010008B7010008B7010008B701000860
:1000A000B7010008B7010008B7010008B701000850
:1000B000B7010008B7010008B7010008B701000840
:1000C000B7010008B7010008B7010008B701000830
:1000D000B7010008B7010008B7010008B701000820
:1000E000B7010008B7010008B7010008B701000810
:1000F000B7010008B7010008B7010008B701000800
:10010000B7010008B7010008B7010008B7010008EF
:10011000B7010008950F0008B7010008B7010008F3
:10012000B7010008B7010008B7010008B7010008CF
:10013000B7010008B7010008B7010008B7010008BF
:10014000B7010008B7010008B7010008B7010008AF
:10015000B7010008B7010008B7010008B70100089F
:10016000B7010008B7010008B7010008B70100088F
:10017000B7010008B7010008B7010008000000003F
:10018000B7010008B7010008DFF80CD000F082F8D2
:100190000048004719140008500400200648804712
:1001A00006480047FEE7FEE7FEE7FEE7FEE7FEE75C
:1001B000FEE7FEE7FEE7FEE7410F000889010008C1
:1001C0002DE9F05F0546002092469B46884606468C
:1001D000814640241BE0284641464746224600F01F
:1001E00048F853465A46C01A914110D31146184652
:1001F000224600F02FF82D1A67EB01084F462246E1
:100200000120002100F026F817EB00094E41201EC6
:10021000A4F10104DFDC484631462A464346BDE8E6
:10022000F09F40EA01039B0703D009E008C9121FB1
:1002300008C0042AFAD203E011F8013B00F8013BA0
:10024000521EF9D27047421C10F8011B0029FBD145
:10025000801A7047202A04DB203A00FA02F10020BD
:1002600070479140C2F1200320FA03F319439040F4
:100270007047202A04DB203A21FA02F0002170475F
:1002800021FA02F3D040C2F12002914008431946FE
:1002900070470000064C074D06E0E06840F001039F
:1002A00094E8070098471034AC42F6D3FFF770FF8C
:1002B000B8140008D8140008FEE7704790F835100D
:1002C000022903D08021416501207047052180F873
:1002D00035100068016821F00101016000207047BD
:1002E00070B5044600F0E6F80546601C02D00448EC
:1002F0000078044400F0DEF8401BA042FAD370BD41
:10030000000000202DE9F84FDFF87CB100224FF00B
:1003100001084FF0030A4FF00F090BF1040E00BF64
:100320000B6808FA02F42340A3426ED14D68022DF7
:1003300001D0122D0ED1D50800EB850CDCF8205031
:100340005607F70E09FA07F6B5430E69BE402E436D
:10035000CCF82060066855000F790AFA05FC07F012
:10036000030726EA0C06AF40374307604E68012EAC
:1003700005D0022E03D0112E01D0122E0ED1866888
:10038000CF6826EA0C06AF40374387604668A6432D
:100390000C79C4F30014944034434460C6688C68FC
:1003A00026EA0C06AC403443C4604C68E40065D5D2
:1003B000364C256845F480452560246822F0030505
:1003C00004F480440094324C2E19D6F8084895075E
:1003D0002F0F09FA07F5AC432E4DA84201D1002595
:1003E00024E02D4DA84201D101251FE02B4DA8424C
:1003F00001D102251AE02A4DA84201D1032515E0BA
:10040000284DA84202D1042510E037E0264DA8422D
:1004100001D105250AE0254DA84201D1062505E0B8
:10042000234DA84201D1072500E00825BD40254302
:10043000C6F80858DBF800405D464E689C43F6035A
:1004400000D51C432C60DEF8004075464E689C4386
:10045000B60300D51C432C600B4D08352C684E6844
:100460009C43F60200D51C432C60074D0C352C68CC
:100470004E689C43B60200D51C432C60521C102AC7
:10048000FFF44EAFBDE8F88F003C01404438024015
:100490000030014000000240000402400008024019
:1004A000000C0240001002400014024000180240FC
:1004B000001C0240014880687047000000000020D6
:1004C0000248816802781144816070470000002072
:1004D0000B4810B5016841F400710160016841F4F6
:1004E00080610160016841F480710160032000F0C7
:1004F000A1F8002000F006F800F024F8002010BD5C
:10050000003C024070B50D4D04464FF47A712878D6
:10051000B1FBF0F00A490968B1FBF0F000F027FBED
:1005200048B9102C07D200222146501E00F062F874
:1005300000206C6070BD012070BD00000000002034
:100540000C000020234808B5016841F48041016097
:10055000006800F4804000901E48001F016841F0D0
:1005600080510160006800F080500090032000F08E
:1005700061F8002211466FF00B0000F03BF80022FA
:1005800011466FF00A0000F035F8002211466FF0B6
:10059000090000F02FF800221146501F00F02AF841
:1005A00000221146101F00F025F800221146901E6F
:1005B00000F020F800221146501E00F01BF8002227
:1005C0001146052000F016F8BDE80840052000F0AF
:1005D00003B8000044380240002809DB00F01F0285
:1005E000012191404009800000F1E020C0F8001195
:1005F00070470000F0B40E4B1B680C46C3F3022397
:10060000C3F10705042D00D90425191D072901D2BE
:10061000002300E0DB1E012606FA05F1491E2140F9
:1006200099409E40761E16403143F0BC00F0D4BE87
:100630000CED00E0064900F0070208684FF6FF03E2
:10064000184040EA0220034A104308607047000047
:100650000CED00E00000FA052DE9F0470E4605001C
:1006600065D0DFF81481D8F80000F7B200F00F0071
:10067000B04207D288F80070D8F8000000F00F00F0
:10068000B04254D128683D4C810712D5400703D5AC
:10069000206840F4E05020602878000703D52068E7
:1006A00040F4604020602068A96820F0F000084312
:1006B00020602878C0072DD03049686808390128A3
:1006C00012D0022813D0032811D009688907002905
:1006D0002DDA216821F0030101432160FFF7EAFED2
:1006E000814641F2883A0EE009688903EFE709681C
:1006F0008901ECE7FFF7DEFEA0EB0901514502D9C5
:100700000320BDE8F0872068696800F00C00B0EBBA
:10071000810FEFD1D8F80010404601F00F01B1422F
:1007200007D90770006800F00F00B04201D0012027
:10073000E7E72878400705D52068E96820F4E0500D
:10074000084320602878000706D52068296920F42E
:10075000604040EAC100206000F03CF82168084A8F
:10076000C1F30311515CC840064908600020FFF73F
:10077000C9FE0020C5E70000003C024008380240E6
:100780009E1400080C00002001480068704700001B
:100790000C0000200448054900680968044AC1F3B8
:1007A0008221515CC84070470C000020083802408C
:1007B000AE1400080448054900680968044AC1F3FA
:1007C0004231515CC84070470C000020083802409C
:1007D000AE140008154810B5006810F00C0214485B
:1007E00013D01449042A0FD0082A0ED10F4C241F0D
:1007F0002268236802F03F025B0207D52068C0F33D
:100800008810A0FB010106E0084610BD2168C1F375
:100810008811A1FB00010023FFF7D2FC2168C1F37E
:100820000141491C4900B0FBF1F010BD08380240FD
:100830000024F40040787D012DE9F84F050076D0C2
:100840002878DFF8F8B2BE4CC00749D0DBF80010BA
:100850005846C1F38101012908D00068C0F3810026
:1008600002280AD1201D0068400206D520688003B6
:1008700036D568680028E2D032E06868B0F5803F7D
:1008800010D0B0F5A02F206810D020F48030206068
:10089000206820F4802020606868A0B1FFF70AFE7D
:1008A00006460CE0206840F48030F4E740F48020F5
:1008B0002060F7E7FFF7FEFD801B642873D82068EF
:1008C0008003F7D50CE0FFF7F5FD064605E000BF15
:1008D000FFF7F0FD801B6428F0D820688003F7D470
:1008E0002878DFF8608280074FF000093ED5DBF8FA
:1008F0000010584611F00C0F09D00068C0F38100B9
:1009000002280BD18D48001F0068400206D42068E1
:10091000800715D5E868012809D111E0E868B8B169
:100920000120C8F80000FFF7C5FD064605E002E11A
:10093000FFF7C0FD801B0228C0D820688007F7D5CC
:100940002068296920F0F80040EAC10020600DE02D
:10095000C8F80090FFF7AEFD064604E0FFF7AAFDD9
:10096000801B02281FD820688007F7D4287800074A
:1009700022D5724E744869696C3671B101210160EB
:10098000FFF798FD074604E0FFF794FDC01B02281F
:1009900009D830688007F7D50EE0C0F80090FFF75F
:1009A00089FD074605E083E0FFF784FDC01B0228B0
:1009B0007ED830688007F7D42878400768D5DFF8FC
:1009C0007CA100270AF1380ADAF80000C0000BD435
:1009D000DAF8001041F08051CAF80010DAF800008F
:1009E000012700F080500090584E3068C00510D4A8
:1009F000306840F480703060FFF75CFD009005E0E7
:100A0000FFF758FD0099401A022851D83068C005F8
:100A1000F6D54A4EA868683601280FD005283068F8
:100A200010D020F001003060306820F00400306009
:100A3000A868B8B1FFF73EFD00900FE0306840F0C5
:100A40000100F4E740F004003060F7E7FFF732FD03
:100A50000099411A41F28830814264D83068800799
:100A6000F4D50EE0FFF726FD009007E0FFF722FD2A
:100A70000099411A41F28830814254D83068800789
:100A8000F4D42FB1DAF8001021F08051CAF8001028
:100A9000A869C0B3DBF80010C1F3810102294AD074
:100AA0000228484607D0C8F86000FFF703FD00E0C1
:100AB00039E005463AE04746C8F86000FFF7FAFC1F
:100AC000064604E0FFF7F6FC801B02282BD82068BE
:100AD0008001F7D4D5E907010843A96A1C4A4908EF
:100AE00002EB01416A6A41EA8211084395F82C1031
:100AF00040EA01611148001F016001203866FFF7DC
:100B0000D9FC054605E014E0FFF7D4FC401B0228A1
:100B100009D820688001F7D50BE000BFFFF7CAFCB9
:100B2000401B022802D90320BDE8F88F206880010D
:100B3000F4D40020F8E70120F6E70000083802406E
:100B40000038024000004742800E474200700040DB
:100B50000000FFFF4FF0E0210428086903D020F0D7
:100B600004000861704740F00400FAE7704710B5D0
:100B7000401EB0F1807F01D3012010BD4FF0E02472
:100B800060610F21601700F027FC0020A0610720A2
:100B90002061002010BD10B5FFF7E8FF10BD7047C1
:100BA00070B5026804461068D168536910F00F0FE1
:100BB00050D003F0010501F4907635435DD0C207B3
:100BC00005D0CA0503D5E26B42F00102E263420799
:100BD00005D5DA0703D0E26B42F00202E263820736
:100BE00005D5DA0703D0E26B42F00402E2630207A4
:100BF00005D5DA0703D0E26B42F00802E263E26B4C
:100C0000002A33D0800604D5880602D5204600F09D
:100C1000DDF920684069E16BC0F38010090700D45A
:100C200028B3204600F0C4F92068416949061AD566
:100C3000416921F040014161606BA0B11B49016530
:100C4000606BFFF73BFB002810D0606B016DBDE8C7
:100C500070400847830610D58B060ED52046BDE8A8
:100C6000704000F0B3B92046FFF799FF70BD2046F1
:100C7000FFF795FF0020E06370BD030606D50B0665
:100C800004D52046BDE8704000F042BB4006F3D5D5
:100C90004806F1D5D168204621F04001D1602021DD
:100CA00084F8391000F0C8F870BD0000A10F0008EA
:100CB00070B5040004D094F83900002510B106E0A6
:100CC000012070BD84F83850204600F023F824201D
:100CD00084F839002068C16821F40051C1602046C1
:100CE00000F0C0F92068016921F490410161206899
:100CF000416921F02A0141612068C16841F4005135
:100D0000C160E563202084F8390084F83A000020AF
:100D100070BD0000F0B50068144987B0884223D147
:100D20001348016841F4801101600068022400F456
:100D3000801005904FF480500125032608278DE888
:100D4000F10069460B48FFF7DDFA04208DE8F10059
:100D500069460948FFF7D6FA002211463520FFF709
:100D600049FC3520FFF738FC07B0F0BD00500040CB
:100D70004038024000080240000C024070472DE954
:100D8000F843044690F839001F4616460D462028C1
:100D900050D1A5B19EB194F8380001284AD0012065
:100DA00084F838004FF00008C4F83C80212084F813
:100DB0003900FFF77FFBA6848146E68426E0012008
:100DC000BDE8F883E08C401EE084A0684B46B0F597
:100DD000805F4FF000024FF080012046009703D063
:100DE00000F0C7FAE8B90DE000F0C3FAC8B92888E6
:100DF0002168C0F308004860206908B16D1C05E057
:100E0000AD1C03E0216815F8010B4860E08C002858
:100E1000D8D14B46002240212046009700F0A9FA85
:100E200008B10320CCE7202084F8390084F838800A
:100E30000020C5E70220C3E77047FEE7114808B568
:100E4000016841F080010160016801F080010091BA
:100E5000016841F001010160016801F001010091A8
:100E6000016841F004010160016801F00401009192
:100E7000016841F008010160006800F0080000907E
:100E800008BD000030380240FEE7704770477047E9
:100E9000704710B5FFF714FBBDE81040FFF77BBEAD
:100EA00030B5254893B00025016841F080510160BC
:100EB000006800F0805011902048016841F48041A2
:100EC00001600068022400F480401190012003902A
:100ED00010200490009406940820CDE90750A82023
:100EE000CDE9090404200B906846FFF7A5FC00B18A
:100EF000FEE70CA90F2081E831004FF4A0500F90BD
:100F00004FF48050109005210CA8FFF7A5FB00B10D
:100F1000FEE7FFF739FC4FF47A71B0FBF1F0FFF711
:100F200026FE0420FFF716FE00221146501EFFF792
:100F300061FB13B030BD000040380240007000403B
:100F40001048016841F4700101600F48016841F0E8
:100F5000010101600C4A00210832116002680B4B4C
:100F60001A400260031D0A4A1A60026822F48022B5
:100F7000026005480C30016002495806803908605B
:100F80007047000088ED00E000380240FFFFF6FEE9
:100F9000103000240148FFF703BE000010000020BD
:100FA00010B5806B0021C185C184FFF7F8FD10BD2D
:100FB0000168CA6822F49072CA6001684A6922F026
:100FC00001024A61202180F83A10704710B590F86C
:100FD0003A10222901D0022010BD8168B1F5805F4E
:100FE00011D00169002901681FD0496801F07F0311
:100FF000816A4A1C82620B70C18D491E0904090C6A
:10100000C18518D02BE00269816A002A0268526803
:1010100005D0D2B20A80816A491C8162ECE7C2F332
:1010200008020A80816A891CF7E74A68816A4B1CBA
:1010300083620A70E0E70168CA6822F02002CA6091
:101040000168CA6822F48072CA6001684A6922F0A5
:1010500001024A61202180F83A10FFF78FFE00203C
:1010600010BD00002DE9F041044600680169E26806
:1010700021F44051114301612169A068E2690843EC
:101080006169114322680843D16849F20C639943AE
:101090000143D16020684169A26921F44071114384
:1010A0004161E2696425B2F5004F9748974922688B
:1010B0004FF032083FD08A4201D082427CD1FFF704
:1010C00079FB00EBC00101EB001061688900B0FB07
:1010D000F1F6FFF76FFB00EBC00101EB0010616858
:1010E0008900B0FBF1F0B0FBF5F06FF01801484358
:1010F00006EB800108EB0110B0FBF5F000F0F00604
:10110000FFF758FB00EBC00101EB0010616889009C
:10111000B0FBF1F0B0FBF5F006EB0016FFF74AFB71
:1011200000EBC00101EB001061688900B0FBF1F732
:10113000FFF740FBD2E08A4201D082423DD1FFF767
:1011400039FB00EBC00101EB001061684900B0FB06
:10115000F1F0B0FBF5F00601FFF72CFB00EBC0014E
:1011600001EB001061684900B0FBF1F7FFF722FBCB
:1011700000EBC00101EB001061684900B0FBF1F029
:10118000B0FBF5F06FF01801484307EB800108EB66
:10119000C100B0FBF5F000F0F80006EB4006FFF7E9
:1011A00009FB00EBC00101EB001061684900B0FBD6
:1011B000F1F7FFF7FFFA3CE055E0FFF7EBFA00EB41
:1011C000C00101EB001061684900B0FBF1F0B0FB19
:1011D000F5F00601FFF7DEFA00EBC00101EB0010AD
:1011E00061684900B0FBF1F7FFF7D4FA00EBC001EA
:1011F00001EB001061684900B0FBF1F0B0FBF5F0C5
:101200006FF01801484307EB800108EBC100B0FB09
:10121000F5F000F0F80006EB4006FFF7BBFA00EB34
:10122000C00101EB001061684900B0FBF1F7FFF766
:10123000B1FA00EBC00101EB001061684900B0FB9E
:10124000F1F0B0FBF5F06FF01801484307EB8001B7
:1012500008EBC100B0FBF5F000F007002168304456
:101260008860BDE8F081FFF795FA00EBC00101EB63
:10127000001061688900B0FBF1F6FFF78BFA00EB14
:10128000C00101EB001061688900B0FBF1F0B0FB18
:10129000F5F06FF01801484306EB800108EB0110F0
:1012A000B0FBF5F000F0F006FFF774FA00EBC001B8
:1012B00001EB001061688900B0FBF1F0B0FBF5F0C4
:1012C00006EB0016FFF766FA00EBC00101EB001019
:1012D00061688900B0FBF1F7FFF75CFA00EBC00131
:1012E00001EB001061688900B0FBF1F0B0FBF5F094
:1012F0006FF01801484307EB800108EB0110B0FBC9
:10130000F5F000F00F00A9E70014014000100140C3
:1013100090F83910212901D0022070478168B1F579
:10132000805F016A0BD04A1C026202680978516032
:10133000C18C491E0904090CC1840ED017E009882C
:101340000268C1F30801516001690029016A02D0F5
:10135000491C0162ECE7891CFBE70168CA6822F0BE
:101360008002CA600068C16841F04001C16000208D
:1013700070472DE9F041984617460E460446069DF3
:101380001DE0681C1BD02DB1FFF794F8A0EB0800FE
:10139000A84214D92068C16821F4D071C1602068C6
:1013A000416921F001014161202084F8390084F86D
:1013B0003A00002084F838000320BDE8F08120685E
:1013C000006836EA000004D00020B842D9D00020DE
:1013D000F3E70120F9E7FEE70907090E002804DB1F
:1013E00000F1E02080F80014704700F00F0000F1D9
:1013F000E02080F8141D704702E008C8121F08C1E1
:10140000002AFAD170477047002001E001C1121F85
:10141000002AFBD17047000088B0FFF759F8FFF7AA
:101420003FFDFFF70BFD144812490C2201604FF4F9
:10143000E131416000218160C160C0E90412816135
:10144000C161FFF735FC00B1FEE720220B49684679
:10145000FEF7E7FE4FF4FA746846FEF7F4FE82B238
:101460000A2369460448FFF78AFC2046FEF738FF46
:10147000F2E7000000500040100000208014000837
:1014800048656C6C6F20576F726C640D0A00000029
:10149000000000000000000000000000000000004C
:1014A0000000000000000102030406070809000014
:1014B0000000010203040000D8140008000000200E
:1014C00010000000F8130008E814000810000020C5
:1014D0004004000008140008010000001000000093
:0814E000000000000024F400EC
:040000050800018965
:00000001FF
