:020000040800F2
:10000000800400209D010008A311000827110008AA
:10001000A111000827070008BD1500080000000016
:10002000000000000000000000000000A711000810
:100030002907000800000000A5110008A911000808
:10004000B7010008B7010008B7010008B7010008B0
:10005000B7010008B7010008B7010008B7010008A0
:10006000B7010008B7010008B7010008B701000890
:10007000B7010008B7010008B7010008B701000880
:10008000B7010008B7010008B7010008B701000870
:10009000B7010008B7010008B7010008B701000860
:1000A000B7010008B7010008B7010008B701000850
:1000B000B7010008B7010008B7010008B701000840
:1000C000B7010008B7010008B7010008B701000830
:1000D000B7010008B7010008B7010008B701000820
:1000E000B7010008B7010008B7010008B701000810
:1000F000B7010008B7010008B7010008B701000800
:10010000B7010008B7010008B7010008B7010008EF
:10011000B7010008B7010008B7010008B7010008DF
:10012000B7010008B7010008B7010008B7010008CF
:10013000B7010008B7010008B7010008B7010008BF
:10014000B7010008B7010008B7010008B7010008AF
:10015000B7010008B7010008B7010008B70100089F
:10016000B7010008B7010008B7010008B70100088F
:10017000B7010008B7010008B7010008000000003F
:10018000B7010008B7010008DFF80CD000F04AFA08
:1001900000480047ED1E0008800400200648804704
:1001A00006480047FEE7FEE7FEE7FEE7FEE7FEE75C
:1001B000FEE7FEE7FEE7FEE75912000889010008A6
:1001C0002DE9F05F0546002092469B46884606468C
:1001D000814640241BE0284641464746224600F01F
:1001E00058F853465A46C01A914110D31146184642
:1001F000224600F03FF82D1A67EB01084F462246D1
:100200000120002100F036F817EB00094E41201EB6
:10021000A4F10104DFDC484631462A464346BDE8E6
:10022000F09F00F0004230F000400AD0C10D01F50F
:100230006071C0F3160042EA0151C2084007114341
:10024000704700200146704730B50B46014600203C
:100250002022012409E021FA02F59D4205D303FA88
:1002600002F5491B04FA02F52844151EA2F1010209
:10027000F1DC30BD202A04DB203A00FA02F1002034
:1002800070479140C2F1200320FA03F319439040D4
:100290007047202A04DB203A21FA02F0002170473F
:1002A00021FA02F3D040C2F12002914008431946DE
:1002B00070472DE9FE4F804681EA0300C00F0C46CF
:1002C000009021F0004123F00045B8EB0200A94165
:1002D00005D24046214690461C460B46024623F076
:1002E0000040104347D0270DC7F30A00C3F30A515B
:1002F0000290401A019040286BDAC3F3130040F4D7
:10030000801B0098924620B10023D2EB030A63EBD6
:100310000B0B01985946C0F140025046FFF7AAFF67
:1003200006460D4650465946019A00F08DF910EBED
:1003300008006141002487EA115284EAE7731A43F6
:1003400040D0009A62B3019A012A4FEA075215DCA5
:10035000001B61EB02014FF0004202EA0752CDE9B7
:100360000042001C41F5801132462B4600F08DF909
:1003700003B0BDE8F08F40462146F9E7001B61EB72
:100380000201001C41F5801300185B412018A2F502
:10039000001747EB030140EAD570B6196D4111E033
:1003A0006D084FEA360645EAC0754FEA0752001B52
:1003B00061EB0201001C41F5801149084FEA300051
:1003C0000019514132462B4603B0BDE8F04F00F012
:1003D0004DB90098012240000023D0EB020263EBEC
:1003E000E073009821464FEAE074B8EB000061EB3F
:1003F0000401E9E783F000435BE781F0004158E73F
:100400002DE9FE4F81EA030404F0004421F000418D
:1004100000944FF0000B23F0004350EA01045ED03B
:1004200052EA03045BD0C3F30A54C1F30A552C44C7
:10043000A4F2F3340194A0FB0254C1F3130141F47C
:100440008011C3F3130343F4801301FB024400FB48
:10045000034E840A970A44EA815447EA8357A4FB6F
:10046000076802958D0A05FB07854FEA932C04FB6C
:100470000C542705029D4FEA065847EA1637B5EB9C
:1004800008056EEB070C870E920E47EA811742EAC9
:100490008312A7FB0201B6EB0B0164EB00042B0DEA
:1004A00043EA0C335E1844EB1C50DA465146E7FB36
:1004B0000201C5F313044FEA0B3343EA14534FEA26
:1004C0000432019C43EA0603A4F10C040294009C4C
:1004D000CDE900B400F0D9F803B0BDE8F08F0020FA
:1004E0000146F9E72DE9F04D81EA030404F0004BE1
:1004F00021F0004514464FF0000A23F0004150EA75
:10050000050220D054EA01021DD0C5F30A57024665
:10051000C5F31303C1F31300C1F30A5640F4801569
:1005200043F48013A7EB0608101BD64608F2FD38EB
:1005300073EB050002D308F1010801E092185B415A
:10054000B8F1000F03DA00200146BDE8F08D00206D
:100550004FF48011064684460EE0171B73EB050727
:1005600005D3121B63EB050306434CEA010C490853
:100570004FEA300092185B4150EA0107EDD152EA90
:10058000030012D082EA040083EA0501084305D083
:10059000101BAB4106D20122002306E000224FF0DF
:1005A000004302E06FF0010253101AEB06004CEB1F
:1005B000085110EB0A0041EB0B01BDE8F04D00F0D3
:1005C00055B8C1F30A52C1F3130140F2FF3341F4AD
:1005D00080119A4202DA00200146704740F233430C
:1005E0009A42A2F2334202DC5242FFF752BEFFF7B8
:1005F00041BE000030B5041E71F1000404DB4FF071
:100600000044404264EB0101141E73F1000405DB59
:100610001C464FF00043524263EB0403994208BF6B
:10062000904230BD064C074D06E0E06840F0010303
:1006300094E8070098471034AC42F6D3FFF7A8FDC2
:100640009C200008BC200008202A06DBCB17203A9B
:1006500041FA02F043EAE07306E041FA02F3D040C7
:10066000C2F12002914008431946704710B5141E8C
:1006700073F1000408DA401C41F1000192185B415B
:100680001A4301D120F0010010BD2DE9F04D924632
:100690009B4611B1B1FA81F202E0B0FA80F2203249
:1006A0009046FFF7E7FD04460F4640EA0A0041EA9C
:1006B0000B0153465A46084313D0114653EA010032
:1006C00019D0C8F140025046FFF7E3FD05460E463B
:1006D000504659464246FFF7CDFD084305D001205C
:1006E00004E020463946BDE8F08D0020054346EA87
:1006F000E0762C4337430A986305E40AA0EB080030
:100700000022FD0A44EA47540A3002D5002001467F
:10071000E9E7010510196941DDE90845001969415A
:10072000BDE8F04DA2E7FEE77047000070B5044653
:1007300000F0E6F80546601C02D004480078044446
:1007400000F0DEF8401BA042FAD370BD2C00002060
:100750002DE9F84FDFF87CB100224FF001084FF08F
:10076000030A4FF00F090BF1040E00BF0B6808FAE3
:1007700002F42340A3426ED14D68022D01D0122D08
:100780000ED1D50800EB850CDCF820505607F70E8B
:1007900009FA07F6B5430E69BE402E43CCF8206037
:1007A000066855000F790AFA05FC07F0030726EAE8
:1007B0000C06AF40374307604E68012E05D0022E6D
:1007C00003D0112E01D0122E0ED18668CF6826EAF2
:1007D0000C06AF40374387604668A6430C79C4F3E4
:1007E0000014944034434460C6688C6826EA0C06C2
:1007F000AC403443C4604C68E40065D5364C256891
:1008000045F480452560246822F0030504F4804403
:100810000094324C2E19D6F8084895072F0F09FA84
:1008200007F5AC432E4DA84201D1002524E02D4D03
:10083000A84201D101251FE02B4DA84201D102257C
:100840001AE02A4DA84201D1032515E0284DA842FF
:1008500002D1042510E037E0264DA84201D105253C
:100860000AE0254DA84201D1062505E0234DA84206
:1008700001D1072500E00825BD402543C6F80858EA
:10088000DBF800405D464E689C43F60300D51C43F0
:100890002C60DEF8004075464E689C43B60300D5D8
:1008A0001C432C600B4D08352C684E689C43F602A7
:1008B00000D51C432C60074D0C352C684E689C43BA
:1008C000B60200D51C432C60521C102AFFF44EAF18
:1008D000BDE8F88F003C0140443802400030014040
:1008E000000002400004024000080240000C0240E8
:1008F000001002400014024000180240001C024098
:1009000001488068704700002C0000200248816880
:1009100002781144816070472C0000200B4810B50C
:10092000016841F400710160016841F48061016077
:10093000016841F480710160032000F08BF8002011
:1009400000F006F800F024F8002010BD003C024042
:1009500070B50D4D04464FF47A712878B1FBF0F074
:100960000A490968B1FBF0F000F011FB48B9102CFE
:1009700007D200222146501E00F04CF800206C6087
:1009800070BD012070BD00002C0000203800002048
:100990001F4808B5016841F480410160006800F417
:1009A000804000901A48001F016841F080510160AA
:1009B000006800F080500090032000F04BF8002207
:1009C00011466FF00B0000F025F8002211466FF081
:1009D0000A0000F01FF8002211466FF0090000F035
:1009E00019F800221146501F00F014F80022114699
:1009F000101F00F00FF800221146901E00F00AF8B8
:100A00000022BDE808401146501E00F003B8000067
:100A100044380240F0B40E4B1B680C46C3F302236B
:100A2000C3F10705042D00D90425191D072901D29A
:100A3000002300E0DB1E012606FA05F1491E2140D5
:100A400099409E40761E16403143F0BC00F0C8BD70
:100A50000CED00E0064900F0070208684FF6FF03BE
:100A6000184040EA0220034A104308607047000023
:100A70000CED00E00000FA052DE9F0470E460500F8
:100A800065D0DFF81481D8F80000F7B200F00F004D
:100A9000B04207D288F80070D8F8000000F00F00CC
:100AA000B04254D128683D4C810712D5400703D588
:100AB000206840F4E05020602878000703D52068C3
:100AC00040F4604020602068A96820F0F0000843EE
:100AD00020602878C0072DD030496868083901287F
:100AE00012D0022813D0032811D0096889070029E1
:100AF0002DDA216821F0030101432160FFF700FF97
:100B0000814641F2883A0EE009688903EFE70968F7
:100B10008901ECE7FFF7F4FEA0EB0901514502D98A
:100B20000320BDE8F0872068696800F00C00B0EB96
:100B3000810FEFD1D8F80010404601F00F01B1420B
:100B400007D90770006800F00F00B04201D0012003
:100B5000E7E72878400705D52068E96820F4E050E9
:100B6000084320602878000706D52068296920F40A
:100B7000604040EAC100206000F03CF82168084A6B
:100B8000C1F30311515CC840064908600020FFF71B
:100B9000DFFE0020C5E70000003C024008380240AC
:100BA00084200008380000200148006870470000D9
:100BB000380000200448054900680968044AC1F368
:100BC0008221515CC840704738000020083802403C
:100BD000942000080448054900680968044AC1F3E4
:100BE0004231515CC840704738000020083802404C
:100BF00094200008154810B5006810F00C02144845
:100C000013D01449042A0FD0082A0ED10F4C241FE8
:100C10002268236802F03F025B0207D52068C0F318
:100C20008810A0FB010106E0084610BD2168C1F351
:100C30008811A1FB00010023FFF7C2FA2168C1F36C
:100C40000141491C4900B0FBF1F010BD08380240D9
:100C50000024F40040787D012DE9F84F050076D09E
:100C60002878DFF8F8B2BE4CC00749D0DBF8001096
:100C70005846C1F38101012908D00068C0F3810002
:100C800002280AD1201D0068400206D52068800392
:100C900036D568680028E2D032E06868B0F5803F59
:100CA00010D0B0F5A02F206810D020F48030206044
:100CB000206820F4802020606868A0B1FFF720FE43
:100CC00006460CE0206840F48030F4E740F48020D1
:100CD0002060F7E7FFF714FE801B642873D82068B4
:100CE0008003F7D50CE0FFF70BFE064605E000BFDA
:100CF000FFF706FE801B6428F0D820688003F7D435
:100D00002878DFF8608280074FF000093ED5DBF8D5
:100D10000010584611F00C0F09D00068C0F3810094
:100D200002280BD18D48001F0068400206D42068BD
:100D3000800715D5E868012809D111E0E868B8B145
:100D40000120C8F80000FFF7DBFD064605E002E1E0
:100D5000FFF7D6FD801B0228C0D820688007F7D592
:100D60002068296920F0F80040EAC10020600DE009
:100D7000C8F80090FFF7C4FD064604E0FFF7C0FD89
:100D8000801B02281FD820688007F7D42878000726
:100D900022D5724E744869696C3671B101210160C7
:100DA000FFF7AEFD074604E0FFF7AAFDC01B0228CF
:100DB00009D830688007F7D50EE0C0F80090FFF73B
:100DC0009FFD074605E083E0FFF79AFDC01B022860
:100DD0007ED830688007F7D42878400768D5DFF8D8
:100DE0007CA100270AF1380ADAF80000C0000BD411
:100DF000DAF8001041F08051CAF80010DAF800006B
:100E0000012700F080500090584E3068C00510D483
:100E1000306840F480703060FFF772FD009005E0AC
:100E2000FFF76EFD0099401A022851D83068C005BE
:100E3000F6D54A4EA868683601280FD005283068D4
:100E400010D020F001003060306820F004003060E5
:100E5000A868B8B1FFF754FD00900FE0306840F08B
:100E60000100F4E740F004003060F7E7FFF748FDC9
:100E70000099411A41F28830814264D83068800775
:100E8000F4D50EE0FFF73CFD009007E0FFF738FDDA
:100E90000099411A41F28830814254D83068800765
:100EA000F4D42FB1DAF8001021F08051CAF8001004
:100EB000A869C0B3DBF80010C1F3810102294AD050
:100EC0000228484607D0C8F86000FFF719FD00E087
:100ED00039E005463AE04746C8F86000FFF710FDE4
:100EE000064604E0FFF70CFD801B02282BD8206883
:100EF0008001F7D4D5E907010843A96A1C4A4908CB
:100F000002EB01416A6A41EA8211084395F82C100C
:100F100040EA01611148001F016001203866FFF7B7
:100F2000EFFC054605E014E0FFF7EAFC401B022851
:100F300009D820688001F7D50BE000BFFFF7E0FC7F
:100F4000401B022802D90320BDE8F88F20688001E9
:100F5000F4D40020F8E70120F6E70000083802404A
:100F60000038024000004742800E474200700040B7
:100F70000000FFFF4FF0E0210428086903D020F0B3
:100F800004000861704740F00400FAE7704710B5AC
:100F9000401EB0F1807F01D3012010BD4FF0E0244E
:100FA00060610F21601700F01BFB0020A06107208B
:100FB0002061002010BD10B5FFF7E8FF10BD70B52F
:100FC000040004D094F83900002510B106E0012097
:100FD00070BD84F83850204600F022F8242084F8B0
:100FE00039002068C16821F40051C160204600F03A
:100FF0005DF92068016921F490410161206841692F
:1010000021F02A0141612068C16841F40051C160AA
:10101000E563202084F8390084F83A00002070BD90
:1010200000B500680E4987B0884216D10D480168A6
:1010300041F4003101600068694600F40030059019
:101040000C200090022001900120029003200390C8
:10105000072004900448FFF77BFB07B000BD0000A9
:101060000044004040380240000002402DE9F843AF
:10107000044690F839001F4616460D46202850D1E8
:10108000A5B19EB194F8380001284AD0012084F817
:1010900038004FF00008C4F83C80212084F8390063
:1010A000FFF72EFCA6848146E68426E00120BDE8F9
:1010B000F883E08C401EE084A0684B46B0F5805F6A
:1010C0004FF000024FF080012046009703D000F05F
:1010D00043FAE8B90DE000F03FFAC8B92888216862
:1010E000C0F308004860206908B16D1C05E0AD1C24
:1010F00003E0216815F8010B4860E08C0028D8D186
:101100004B46002240212046009700F025FA08B106
:101110000320CCE7202084F8390084F838800020B0
:10112000C5E70220C3E7FEE7094808B5016841F0BA
:1011300080010160016801F080010091016841F0C7
:1011400001010160006800F00100009008BD00008E
:10115000303802400D4810B50B4901604FF4E131C1
:101160004160002181600C22C160C0E904128161EC
:10117000C161FFF724FF002805D0BDE810404221DF
:1011800003A000F01CBA10BD004400404000002045
:101190002E2E2F5372632F75736172742E630000AD
:1011A000FEE770477047704710B5FFF7AFFBBDE82B
:1011B0001040FFF700BF000030B5254893B0002570
:1011C000016841F080510160006800F0805011908A
:1011D0002048016841F4804101600068022400F465
:1011E00080401190012003901020049000940694F8
:1011F0000820CDE90750A020CDE9090404200B9078
:101200006846FFF729FD00B1FEE70CA90F2081E831
:1012100031004FF4A0500F904FF4805010900521F2
:101220000CA8FFF729FC00B1FEE7FFF7BDFC4FF467
:101230007A71B0FBF1F0FFF7AAFE0420FFF79AFEE7
:1012400000221146501EFFF7E5FB13B030BD000031
:1012500040380240007000401048016841F47001BD
:1012600001600F48016841F0010101600C4A002152
:101270000832116002680B4B1A400260031D0A4AD3
:101280001A60026822F48022026005480C30016076
:1012900002495806803908607047000088ED00E078
:1012A00000380240FFFFF6FE103000242DE9F04127
:1012B000044600680169E26821F44051114301616C
:1012C0002169A068E2690843616911432268084303
:1012D000D16849F20C6399430143D16020684169A8
:1012E000A26921F4407111434161E2696425B2F5BC
:1012F000004F9748974922684FF032083FD08A4202
:1013000001D082427CD1FFF765FC00EBC00101EB0C
:10131000001061688900B0FBF1F6FFF75BFC00EBA1
:10132000C00101EB001061688900B0FBF1F0B0FB77
:10133000F5F06FF01801484306EB800108EB01104F
:10134000B0FBF5F000F0F006FFF744FC00EBC00145
:1013500001EB001061688900B0FBF1F0B0FBF5F023
:1013600006EB0016FFF736FC00EBC00101EB0010A6
:1013700061688900B0FBF1F7FFF72CFCD2E08A42EC
:1013800001D082423DD1FFF725FC00EBC00101EB0B
:10139000001061684900B0FBF1F0B0FBF5F0060108
:1013A000FFF718FC00EBC00101EB00106168490079
:1013B000B0FBF1F7FFF70EFC00EBC00101EB0010F2
:1013C00061684900B0FBF1F0B0FBF5F06FF0180177
:1013D000484307EB800108EBC100B0FBF5F000F0DB
:1013E000F80006EB4006FFF7F5FB00EBC00101EB50
:1013F000001061684900B0FBF1F7FFF7EBFB3CE040
:1014000055E0FFF7D7FB00EBC00101EB001061686E
:101410004900B0FBF1F0B0FBF5F00601FFF7CAFBA5
:1014200000EBC00101EB001061684900B0FBF1F76F
:10143000FFF7C0FB00EBC00101EB00106168490041
:10144000B0FBF1F0B0FBF5F06FF01801484307EB8B
:10145000800108EBC100B0FBF5F000F0F80006EBEE
:101460004006FFF7A7FB00EBC00101EB001061682D
:101470004900B0FBF1F7FFF79DFB00EBC00101EB6A
:10148000001061684900B0FBF1F0B0FBF5F06FF0BF
:101490001801484307EB800108EBC100B0FBF5F0F1
:1014A00000F00700216830448860BDE8F081FFF754
:1014B00081FB00EBC00101EB001061688900B0FB0B
:1014C000F1F6FFF777FB00EBC00101EB001061685C
:1014D0008900B0FBF1F0B0FBF5F06FF01801484364
:1014E00006EB800108EB0110B0FBF5F000F0F00610
:1014F000FFF760FB00EBC00101EB001061688900A1
:10150000B0FBF1F0B0FBF5F006EB0016FFF752FB75
:1015100000EBC00101EB001061688900B0FBF1F73E
:10152000FFF748FB00EBC00101EB00106168890088
:10153000B0FBF1F0B0FBF5F06FF01801484307EB9A
:10154000800108EB0110B0FBF5F000F00F00A9E7F7
:1015500000140140001001402DE9F0419846174663
:101560000E460446069D1DE0681C1BD02DB1FFF7FA
:10157000C7F9A0EB0800A84214D92068C16821F47B
:10158000D071C1602068416921F0010141612020D2
:1015900084F8390084F83A00002084F838000320E9
:1015A000BDE8F0812068006836EA000004D0002021
:1015B000B842D9D00020F3E70120F9E7FEE7FEE7C3
:1015C0000FB4054B10B503A9044A029800F0EAF8DD
:1015D00010BC5DF814FB0000D51E00083C00002084
:1015E0000907090E002804DB00F1E02080F8001450
:1015F000704700F00F0000F1E02080F8141D7047E4
:1016000002E008C8121F08C1002AFAD170477047CB
:10161000002001E001C1121F002AFBD17047000029
:101620002DE9FF5F82B00021DDE90430020DDDF815
:1016300040B0034318D044F61050A2F2FF324243A8
:101640001514119801281FD0A5EB0B00401C5FEA70
:10165000000A4FF000064E4FDFF83891B046504672
:1016600015D5CAF1000413E0119801244AA30128FA
:1016700001D16FEA0B010298119AC0E90031C0E96B
:10168000024206B0BDE8F09FCBF10000DFE7044660
:101690000021404A491842EB0450CDE9001012E005
:1016A000E00707D032463B4640464946FEF7A8FED3
:1016B0008046894632463B4610461946FEF7A0FE54
:1016C00006460F466410002CEAD1DDE90401DDE98D
:1016D0000023BAF1000F06DAFEF792FE42464B46AF
:1016E000FEF78EFE05E0FEF7FDFE42464B46FEF796
:1016F000F9FE04460E460022284BFEF77BFF03D876
:101700004FF0FF30014607E00022254B20463146CE
:10171000FEF7CFFDFEF755FF102409E0002C0ADB91
:101720000A220023FEF74CFD039B30321A55641E3B
:1017300050EA0102F2D1641C039AC4F1110314446B
:10174000119A012A03D0012208430DD10AE008436F
:1017500004D000204FF0110B119072E7A3EB0B05A2
:101760006D1E0DE05B4504DD4FF0000205F1010543
:1017700004E003DA4FF00002A5F10105002AECD0E5
:1017800002981199C0E90231C0E9004579E70000EB
:10179000000014400000F03F300000000000F04363
:1017A0000000E03F2DE9FF4F95B09B468946064675
:1017B00000250FE2252877D100242746F84A012189
:1017C000059400E0044316F8013F203B01FA03F0C2
:1017D0001042F7D130782A2811D06FF02F033078DB
:1017E000A0F13002092A16D8059A44F0020402EB4F
:1017F000820203EB42021044761C0590EFE759F891
:10180000042B0592002A03DA504244F40054059058
:1018100044F00204761C30782E2816D116F8010FF9
:1018200044F004042A280DD06FF02F023078A0F184
:101830003003092B09D807EB870302EB4303C718D2
:10184000761CF3E759F8047B761C30786C280FD0AF
:1018500006DC4C2817D068280DD06A2814D104E083
:10186000742810D07A280FD10DE044F400140AE057
:1018700044F4801401E044F440147278824202D1AE
:1018800004F58014761C761C307866280BD013DCA7
:10189000582877D009DC002875D04528F6D046288E
:1018A000F4D047281AD19DE118E0632835D0642888
:1018B00079D0652812D195E1702873D008DC6728AB
:1018C000F1D069286FD06E280DD06F2806D1B5E011
:1018D00073282CD0752875D0782874D05A4617995B
:1018E00090476D1C75E1C4F30250022809D003280B
:1018F0000DD0D9F8001004280DD00D6009F10409AD
:1019000067E1D9F80010EA17C1E90052F6E7D9F803
:1019100000100D80F2E70D70F0E719F8041B8DF848
:10192000001000208DF80100EA46012003E059F87C
:1019300004AB4FF0FF3061074FF0000102D40DE01F
:1019400008F101018846B9420FDA8045F8DB1AF840
:1019500008100029F4D108E008F10101884681420D
:10196000FADB1AF808100029F6D105985B46A0EBBF
:10197000080721463846179A00F094FA284400EBED
:10198000080507E04DE029E10DE01AF8010B5A4681
:1019900017999047B8F10108F7D25B4621463846BF
:1019A000179A13E142E00A220092C4F302524FF068
:1019B000000A022A08D059F804CB032A4FEAEC7136
:1019C0000AD00DE029E02AE009F1070121F0070221
:1019D000F2E802C1914609E00FFA8CFC4FEAEC7183
:1019E000042A03D14FFA8CFC4FEAEC71002907DA84
:1019F0000A460021DCF1000C61EB02012D2202E01D
:101A0000220504D52B228DF80420012203E0E207F1
:101A100001D02022F7E7904659E00A2102E0102287
:101A20000DE010214FF0000A00910BE010224FF062
:101A3000000A44F004040827009203E008224FF053
:101A4000000A0092C4F30252022A05D059F804CBCE
:101A50000021032A08D009E009F1070121F007025B
:101A6000F2E802C1914605E01FFA8CFC042A01D17C
:101A70000CF0FF0C4FF00008220728D5702806D084
:101A8000009B83F0100353EA0A0305D00EE04022C6
:101A90008DF80420012208E05CEA010206D0302221
:101AA0008DF804208DF8050002229046009B83F0FB
:101AB000080353EA0A030AD15CEA010201D1620772
:101AC00005D530228DF804204FF001087F1E5828DC
:101AD00004D034A003900EA802900DE036A0F9E7E0
:101AE00053466046009AFEF76BFB84460398825C7F
:101AF0000298401E029002705CEA0100F0D1029848
:101B000006A9081A00F1200A600702D524F48034DF
:101B100000E00127574502DDA7EB0A0000E00020A6
:101B200000EB0A01009005984144401A0590E0033B
:101B300006D45B462146179A059800F0B3F9054490
:101B4000002706E001A85A46C05D179990476D1C12
:101B50007F1C4745F6DBE0030CD55B462146179A10
:101B6000059800F09FF9054404E030205A46179983
:101B700090476D1C0099481E00900029F5DC08E094
:101B8000029802995A460078491C02911799904789
:101B90006D1CBAF10001AAF1010AF1DC65E1000057
:101BA0000928010030313233343536373839616233
:101BB00063646566000000003031323334353637F7
:101BC00038394142434445460000000000F058F9CE
:101BD0000544761C307800287FF4ECAD19B0284617
:101BE000BDE8F08F620700D4062709F1070222F052
:101BF000070CFCE80223E14603F000485FEA080C0A
:101C000002D00FF2702C0DE05FEA045C02D50FF2F7
:101C1000682C07E05FEAC47C02D00FF2602C01E080
:101C2000AFF2700C4FF0FF3823F00043CDF850C0F6
:101C300065280CD006DC452809D046281DD0472849
:101C40003DD13DE0662818D067287ED138E00021DC
:101C5000112F01DB112000E0781CCDE9000106A95D
:101C60000EA8FFF7DDFCDDE90F010E9A03910021BC
:101C7000009207F1010A04914DE04FF000400097F7
:101C8000CDE9011006A90EA8FFF7CAFCDDE90F0295
:101C900003920E9B11990022DDF80CA00093049290
:101CA00011B9791C00EB010AB7EB0A0004D4C0F1AA
:101CB000FF3007F1010A0490AAEB0700019044E00D
:101CC000012F00DA01270021112F01DD112000E092
:101CD0003846CDE9000106A90EA8FFF7A1FCDDE911
:101CE0000F010E9A0391002104910092BA46210738
:101CF0000CD40399514500DA8A46BAF1010F05DD8B
:101D0000009AAAF10101515C302908D0B84202DAE8
:101D100010F1040F06DA0121CDE9011015E0AAF156
:101D20000101E9E7002805DC049901440491AAEBCC
:101D3000000102E0411C514500DD8A460499401A29
:101D4000401C01904FF000400290200704D40198FD
:101D5000504501DBCDF8048000208DF84F0002983B
:101D60000DF14F07B0F1004F25D02B200E900298B7
:101D70004FF0020800280CDA404202902D200E900D
:101D800007E00A210298FEF75FFA3031029007F867
:101D9000011DB8F10001A8F10108F2DC0298002849
:101DA000EFD1791E0E980870307800F0200040F0D6
:101DB000450007F8020D12A8C01B00F1070814988F
:101DC000007800B1012000EB0A01019801EBE071FD
:101DD00005984144401A401E0590E00306D45B4636
:101DE0002146179A059800F05DF80544149800788C
:101DF00018B15A46179990476D1CE00324D55B46ED
:101E00002146179A059800F04DF805441CE0049807
:101E1000002807DBDDE90301884203DD0098405C10
:101E2000179901E0179930205A469047049805F118
:101E30000105401C04900198401E019004D12E2001
:101E40005A46179990476D1CBAF10001AAF1010A90
:101E5000DDDC05E017F8010B5A46179990476D1C19
:101E6000B8F10001A8F10108F4DC5B462146179A9D
:101E70000598ABE62D0000002B00000020000000BC
:101E80002DE9F041044600251E461746880404D477
:101E900005E039462020B0476D1C641EF9D5284660
:101EA000BDE8F0812DE9F041044600251E4690462C
:101EB000C80301D5302700E02027880404D505E0B9
:101EC00041463846B0476D1C641EF9D52846BDE82A
:101ED000F081000013B50A23012269460248FFF78A
:101EE000C5F800981CBD0000400000201CB5FEF79E
:101EF00015FDFFF761F9FFF717F9FFF72BF9224CF2
:101F00004FF47A7521A02178FFF75AFB1E4924A0CF
:101F10001831FFF755FB26A06168FFF751FBA06859
:101F2000FEF77FF941EC100B27A053EC102BFFF7C5
:101F300047FBA068FEF775F941EC100B28A053ECA5
:101F4000102BFFF73DFB94ED040B2BA053EC102B53
:101F5000FFF736FB2EA06168FFF732FB32A0616805
:101F6000FFF72EFB2846FEF7E1FBA068FEF759F9C4
:101F7000CDE90001217833A06268FFF721FB2846F4
:101F8000FEF7D4FBBEE7000000000020436861724A
:101F90006163746572206973202563200D0A000057
:101FA000537472696E67206973202573200D0A00CF
:101FB000496E74656765722076616C75652069731A
:101FC000202564200D0A0000466C6F617420766144
:101FD0006C7565206973202566200D0A00000000DD
:101FE000466C6F61742076616C756520697320257D
:101FF0002E3266200D0A0000446F75626C652076F3
:10200000616C756520697320256C66200D0A0000DF
:102010004F6374616C2076616C756520697320254F
:102020006F200D0A000000004865786164656369EF
:102030006D616C2076616C75652069732025782050
:102040000D0A0000436861726163746572206973F0
:10205000202563203A20496E746567657220766199
:102060006C7565206973202564203A20466C6F6189
:10207000742076616C756520697320252E32662088
:10208000200D0A000000000000000000010203040F
:10209000060708090000000001020304BC20000834
:1020A000000000204000000000160008FC2000088E
:1020B000400000204004000010160008410000000D
:1020C000200000003F75054300000000B77EFACFF6
:1020D0009A1F344048656C6C6F20576F726C6400B7
:1020E00000000000000000000100000010000000DF
:0C20F000000000000024F40000000000CC
:040000050800018965
:00000001FF
