:020000040800F2
:10000000580400209D0100083F100008C30F00089D
:100010003D100008850200083F13000800000000A2
:100020000000000000000000000000004510000873
:100030008702000800000000411000084710000877
:10004000B7010008B7010008B7010008B7010008B0
:10005000B701000843100008B7010008B701000805
:10006000B7010008B7010008B7010008B701000890
:10007000B7010008B7010008B7010008B701000880
:10008000B7010008B7010008B7010008B701000870
:10009000B7010008B7010008B7010008B701000860
:1000A000B7010008B7010008B7010008B701000850
:1000B00031110008B7010008B7010008B7010008B6
:1000C000B7010008B7010008B7010008B701000830
:1000D000B7010008B7010008B7010008B701000820
:1000E000B7010008B7010008B7010008B701000810
:1000F000B7010008B7010008B7010008B701000800
:10010000B7010008B7010008B7010008B7010008EF
:10011000B7010008B7010008B7010008B7010008DF
:10012000B7010008B7010008B7010008B7010008CF
:10013000B7010008B7010008B7010008B7010008BF
:10014000B7010008B7010008B7010008B7010008AF
:10015000B7010008B7010008B7010008B70100089F
:10016000B7010008B7010008B7010008B70100088F
:10017000B7010008B7010008B7010008000000003F
:10018000B7010008B7010008DFF80CD000F068F8EC
:1001900000480047811300085804002006488047A3
:1001A00006480047FEE7FEE7FEE7FEE7FEE7FEE75C
:1001B000FEE7FEE7FEE7FEE7DD1000088901000824
:1001C0002DE9F05F0546002092469B46884606468C
:1001D000814640241BE0284641464746224600F01F
:1001E0002FF853465A46C01A914110D3114618466B
:1001F000224600F016F82D1A67EB01084F462246FA
:100200000120002100F00DF817EB00094E41201EDF
:10021000A4F10104DFDC484631462A464346BDE8E6
:10022000F09F202A04DB203A00FA02F100207047F8
:100230009140C2F1200320FA03F319439040704724
:10024000202A04DB203A21FA02F00021704721FA2B
:1002500002F3D040C2F12002914008431946704792
:10026000064C074D06E0E06840F0010394E8070003
:1002700098471034AC42F6D3FFF78AFFE01300082A
:1002800000140008FEE770472DE9F84FDFF87CB155
:1002900000224FF001084FF0030A4FF00F090BF155
:1002A000040E00BF0B6808FA02F42340A3426ED18B
:1002B0004D68022D01D0122D0ED1D50800EB850C12
:1002C000DCF820505607F70E09FA07F6B5430E6919
:1002D000BE402E43CCF82060066855000F790AFA1C
:1002E00005FC07F0030726EA0C06AF40374307601A
:1002F0004E68012E05D0022E03D0112E01D0122EF1
:100300000ED18668CF6826EA0C06AF403743876077
:100310004668A6430C79C4F3001494403443446007
:10032000C6688C6826EA0C06AC403443C4604C684E
:10033000E40065D5364C256845F480452560246881
:1003400022F0030504F480440094324C2E19D6F8B0
:10035000084895072F0F09FA07F5AC432E4DA84220
:1003600001D1002524E02D4DA84201D101251FE037
:100370002B4DA84201D102251AE02A4DA84201D1F5
:10038000032515E0284DA84202D1042510E037E0EE
:10039000264DA84201D105250AE0254DA84201D1EC
:1003A000062505E0234DA84201D1072500E00825D8
:1003B000BD402543C6F80858DBF800405D464E684E
:1003C0009C43F60300D51C432C60DEF800407546C4
:1003D0004E689C43B60300D51C432C600B4D08357A
:1003E0002C684E689C43F60200D51C432C60074DD8
:1003F0000C352C684E689C43B60200D51C432C601B
:10040000521C102AFFF44EAFBDE8F88F003C0140AB
:100410004438024000300140000002400004024025
:1004200000080240000C024000100240001402408C
:1004300000180240001C024001488068704700001C
:1004400008000020024881680278114481607047EA
:10045000080000200B4810B5016841F400710160EC
:10046000016841F480610160016841F480710160BC
:10047000032000F0A1F8002000F006F800F024F8B6
:10048000002010BD003C024070B50D4D04464FF4F5
:100490007A712878B1FBF0F00A490968B1FBF0F0F5
:1004A00000F007FB48B9102C07D200222146501E4D
:1004B00000F062F800206C6070BD012070BD00008B
:1004C0000800002014000020234808B5016841F40A
:1004D00080410160006800F4804000901E48001FC9
:1004E000016841F080510160006800F08050009088
:1004F000032000F061F8002211466FF00B0000F0BD
:100500003BF8002211466FF00A0000F035F8002297
:1005100011466FF0090000F02FF800221146501F1D
:1005200000F02AF800221146101F00F025F80022E2
:100530001146901E00F020F800221146501E00F0D7
:100540001BF800221146052000F016F8BDE808400F
:10055000052000F003B8000044380240002809DB01
:1005600000F01F02012191404009800000F1E020CD
:10057000C0F8001170470000F0B40E4B1B680C4629
:10058000C3F30223C3F10705042D00D90425191D67
:10059000072901D2002300E0DB1E012606FA05F13F
:1005A000491E214099409E40761E16403143F0BCC2
:1005B00000F0C6BE0CED00E0064900F00702086836
:1005C0004FF6FF03184040EA0220034A1043086038
:1005D000704700000CED00E00000FA052DE9F0473F
:1005E0000E46050065D0DFF81481D8F80000F7B298
:1005F00000F00F00B04207D288F80070D8F8000071
:1006000000F00F00B04254D128683D4C810712D54C
:10061000400703D5206840F4E050206028780007A8
:1006200003D5206840F4604020602068A96820F06D
:10063000F000084320602878C0072DD03049686852
:100640000839012812D0022813D0032811D00968D4
:10065000890700292DDA216821F003010143216077
:10066000FFF7EAFE814641F2883A0EE00968890305
:10067000EFE709688901ECE7FFF7DEFEA0EB09016F
:10068000514502D90320BDE8F0872068696800F071
:100690000C00B0EB810FEFD1D8F80010404601F00C
:1006A0000F01B14207D90770006800F00F00B04297
:1006B00001D00120E7E72878400705D52068E968E0
:1006C00020F4E050084320602878000706D5206811
:1006D000296920F4604040EAC100206000F01CF865
:1006E0002168084AC1F30311515CC84006490860FB
:1006F0000020FFF7C9FE0020C5E70000003C0240D3
:1007000008380240D0130008140000200148006897
:100710007047000014000020154810B5006810F064
:100720000C02144813D01449042A0FD0082A0ED101
:100730000F4C241F2268236802F03F025B0207D59A
:100740002068C0F38810A0FB010106E0084610BD38
:100750002168C1F38811A1FB00010023FFF730FDE0
:100760002168C1F30141491C4900B0FBF1F010BD03
:10077000083802400024F40040787D012DE9F84F4C
:10078000050076D02878DFF8F8B2BE4CC00749D013
:10079000DBF800105846C1F38101012908D0006838
:1007A000C0F3810002280AD1201D0068400206D54E
:1007B0002068800336D568680028E2D032E0686897
:1007C000B0F5803F10D0B0F5A02F206810D020F4F5
:1007D00080302060206820F4802020606868A0B10C
:1007E000FFF72AFE06460CE0206840F48030F4E76C
:1007F00040F480202060F7E7FFF71EFE801B64288E
:1008000073D820688003F7D50CE0FFF715FE064685
:1008100005E000BFFFF710FE801B6428F0D82068B9
:100820008003F7D42878DFF8608280074FF0000952
:100830003ED5DBF80010584611F00C0F09D00068C7
:10084000C0F3810002280BD18D48001F00684002D0
:1008500006D42068800715D5E868012809D111E081
:10086000E868B8B10120C8F80000FFF7E5FD0646CA
:1008700005E002E1FFF7E0FD801B0228C0D82068F8
:100880008007F7D52068296920F0F80040EAC10008
:1008900020600DE0C8F80090FFF7CEFD064604E0AA
:1008A000FFF7CAFD801B02281FD820688007F7D4F5
:1008B0002878000722D5724E744869696C3671B188
:1008C00001210160FFF7B8FD074604E0FFF7B4FD22
:1008D000C01B022809D830688007F7D50EE0C0F8A1
:1008E0000090FFF7A9FD074605E083E0FFF7A4FDB0
:1008F000C01B02287ED830688007F7D428784007CC
:1009000068D5DFF87CA100270AF1380ADAF8000080
:10091000C0000BD4DAF8001041F08051CAF8001082
:10092000DAF80000012700F080500090584E30683F
:10093000C00510D4306840F480703060FFF77CFD53
:10094000009005E0FFF778FD0099401A022851D881
:100950003068C005F6D54A4EA868683601280FD021
:100960000528306810D020F001003060306820F099
:1009700004003060A868B8B1FFF75EFD00900FE09A
:10098000306840F00100F4E740F004003060F7E721
:10099000FFF752FD0099411A41F28830814264D834
:1009A00030688007F4D50EE0FFF746FD009007E0C1
:1009B000FFF742FD0099411A41F28830814254D834
:1009C00030688007F4D42FB1DAF8001021F080519C
:1009D000CAF80010A869C0B3DBF80010C1F38101A8
:1009E00002294AD00228484607D0C8F86000FFF71D
:1009F00023FD00E039E005463AE04746C8F86000CC
:100A0000FFF71AFD064604E0FFF716FD801B0228DB
:100A10002BD820688001F7D4D5E907010843A96ADB
:100A20001C4A490802EB01416A6A41EA8211084303
:100A300095F82C1040EA01611148001F0160012067
:100A40003866FFF7F9FC054605E014E0FFF7F4FC13
:100A5000401B022809D820688001F7D50BE000BFB1
:100A6000FFF7EAFC401B022802D90320BDE8F88FFB
:100A700020688001F4D40020F8E70120F6E70000A8
:100A8000083802400038024000004742800E4742CA
:100A9000007000400000FFFF4FF0E02104280869CB
:100AA00003D020F004000861704740F00400FAE72A
:100AB000704710B5401EB0F1807F01D3012010BDFA
:100AC0004FF0E02460610F21601700F039FC002036
:100AD000A06107202061002010BD10B5FFF7E8FFDE
:100AE00010BD7047704770B590F83C20012A19D0AE
:100AF000012400F83C4F0222427050F83C3C5A68F6
:100B00009D6822F070060A684968324325F0800526
:100B100029435A6050F83C2C9160447000210170C8
:100B2000084670BD022070BD10B5040003D094F8D3
:100B30003D0010B107E0012010BD002084F83C000A
:100B4000204600F00DF8022084F83D00211D2068A9
:100B500000F0F4FA012084F83D00002010BD0000F0
:100B600000B5006887B0B0F1804F1CD10F4800215C
:100B7000026842F0010202600068022200F00100F7
:100B8000059001200090CDE90121CDE903106946CF
:100B90000748FFF779FB002211461C20FFF7ECFC09
:100BA0001C20FFF7DBFC07B000BD0000403802400E
:100BB0000000024070B5044690F83C00012817D0B0
:100BC000012584F83C50022084F83D0020688268AA
:100BD00022F0770222F47F4282600868502830D0E9
:100BE0000DDC20284DD005DC98B310283BD148E01F
:100BF000022070BD302844D0402834D139E060282C
:100C000028D0702806D0B0F5805F2CD0B0F5005FFA
:100C100029D10AE0CB68D1E90121206800F0FFFA70
:100C20002068816841F0770109E0CB68D1E90121B2
:100C3000206800F0F4FA2068816841F48041816006
:100C400011E0CA684968206800F0FBFA502120686A
:100C500007E016E0CA684968206800F043FB60219D
:100C6000206800F0E6FA84F83D50002084F83C004B
:100C700070BDCA684968206800F0E3FA4021206826
:100C8000EFE7226801461046EBE700000168B1F18A
:100C9000804F05D1496A034A5160006800214162D2
:100CA00070470000000000202DE9F041044690F854
:100CB0003C000D4601283DD0012684F83C6002200E
:100CC00084F83D00AAB3042A46D02068082A55D0EB
:100CD000D5E90027E968036A23F480530362D0F85A
:100CE0001CC0036A2CF4407C4CEA07274FF6FF7CBB
:100CF00027F470470CEA013139434FF4204723F4BD
:100D0000204307EA02321A43C16102622068C169C6
:100D100021F44061C1612068C169AA6841EA0221E9
:100D2000C0F81C1084F83D60002084F83C00BDE849
:100D3000F08101E00220FAE7D5E90012EB682068B3
:100D400000F090FA2068816921F00C01816120682F
:100D50008169AA6811430FE0D5E90012EB682068A9
:100D600000F0D2FA2068816921F440618161206835
:100D70008169AA6841EA02218161D3E7D5E9002CA3
:100D80002F7B016A21F480710162C169036A21F03D
:100D9000030141EA0C0121F0F00C39074FF4206700
:100DA0004CEA116123F4206307EA02221A43C1616D
:100DB00002622068C16921F00C01C1612068C1692B
:100DC000AA681143ACE710B5040003D094F83D00C5
:100DD00010B107E0012010BD002084F83C0020463F
:100DE00000F00CF8022084F83D00211D206800F07E
:100DF000A5F9012084F83D00002010BD704710B512
:100E00000268044631B1042908D008291AD00C29F7
:100E100008D11BE0D06840F0020002E0D06840F04A
:100E20000400D0600122206800F0ECF9206881689D
:100E300001F00701062903D0016841F001010160BA
:100E4000002010BDD06840F00800EAE7D06840F00C
:100E50001000E6E770B50446006801694FF0000530
:100E6000C943890715D4C168C943890711D4E91E4C
:100E7000016101202077206880698007204602D028
:100E8000FFF704FF04E000F098F8204600F096F821
:100E9000257720680169C943490717D4C168C94348
:100EA000490713D46FF00401016102202077206804
:100EB000806910F4407F204602D0FFF7E7FE04E08F
:100EC00000F07BF8204600F079F82577206801696A
:100ED000C943090716D4C168C943090712D46FF082
:100EE00008010161042020772068C069800720463E
:100EF00002D0FFF7CBFE04E000F05FF8204600F0E0
:100F00005DF8257720680169C943C90617D4C1680F
:100F1000C943C90613D46FF010010161082020777E
:100F20002068C06910F4407F204602D0FFF7AEFE73
:100F300004E000F042F8204600F040F825772068F1
:100F40000169C943C90708D1C168C943C90704D1A8
:100F5000891E0161204600F032F820680169C9430A
:100F6000090609D4C168C943090605D46FF0800198
:100F700001612046FFF7B5FD20680169C9434906B4
:100F800009D4C168C943490605D46FF04001016125
:100F9000204600F015F820680169C94389060BD482
:100FA000C168C943890607D46FF02001016120465A
:100FB000BDE87040FFF796BD70BD70477047704741
:100FC0007047FEE710B51B488AB04FF080410160C2
:100FD0004FF47A510024C0E901141749C0E9031401
:100FE000FFF7A2FD00B1FEE74FF48050049004A982
:100FF0001048FFF7DFFD00B1FEE70E48FFF7E3FE04
:1010000000B1FEE7089408A90A480994FFF76BFDB0
:1010100000B1FEE70120CDE900400F20CDE90240FC
:10102000002269460348FFF73FFE002800D0FEE794
:101030000AB010BD18000020A0860100FEE770472E
:1010400070477047704710B5FFF7FCF9BDE81040D6
:10105000FFF743BD10B51F4892B00024016841F06E
:1010600080510160006800F0805011901A480168BA
:1010700041F4804101600068069400F480401190C2
:101080000220009001200390102004906846FFF792
:1010900075FB00B1FEE70F20CDE90C040E940F9410
:1010A00000210CA81094FFF799FA00B1FEE7FFF7B2
:1010B0002DFB4FF47A71B0FBF1F0FFF7FAFC04203E
:1010C000FFF7EAFC00221146501EFFF755FA12B056
:1010D00010BD000040380240007000401048016818
:1010E00041F4700101600F48016841F001010160A5
:1010F0000C4A00210832116002680B4B1A40026052
:10110000031D0A4A1A60026822F480220260054820
:101110000C300160024958068039086070470000B1
:1011200088ED00E000380240FFFFF6FE103000249A
:101130000148FFF78FBE000018000020F0B50268DC
:10114000254C264D264E274F274B4FF0804CA04272
:1011500009D0604507D0A84205D0B04203D0B842BC
:1011600001D0984204D122F0700E4A6842EA0E0281
:10117000A0421BD0604519D0A84217D0B04215D06C
:10118000B84213D0984211D0184DA8420ED0184D35
:10119000A8420BD0174DA84208D0174DA84205D041
:1011A000164DA84202D0164DA84203D122F4407534
:1011B000CA682A434D6922F080022A4302608A6885
:1011C000C2620A688262A04201D0984201D10969D4
:1011D000016301214161F0BD0000014000040040B5
:1011E00000080040000C00400004014000400140A5
:1011F000004401400048014000180040001C00402D
:101200000020004010B501F01F030121046A99403D
:101210008C430462016A9A401143016210BD10B50B
:10122000846842EA032224F47F440A432243826012
:1012300010BD826822F070020A4342F0070181600B
:10124000704710B5036A046A24F0010404628469DB
:1012500024F0F00444EA021423F00A020A438461F1
:10126000026210BD70B5046A24F00104046284694E
:10127000056A154EB04214D0B0F1804F11D0134E14
:10128000B0420ED0124EB0420BD0124EB04208D037
:10129000114EB04205D0114EB04202D0104EB042B5
:1012A00003D124F00304144301E044F001041A07BD
:1012B00024F0F00444EA126225F00A0301F00A0166
:1012C00019438261016270BD0000014000040040CA
:1012D00000080040000C00400004014000400140B4
:1012E0000018004010B5036A23F0100303628369FD
:1012F000046A23F4704343EA023224F0A00343EA71
:1013000001118261016210BD30B5046A24F010043D
:1013100004628469056A24F4407444EA022222F4D7
:1013200070444FF6FF7202EA03322243A02425F0F4
:10133000A00304EA011119438261016230BDFEE796
:101340000907090E002804DB00F1E02080F80014F2
:10135000704700F00F0000F1E02080F8141D704786
:1013600002E008C8121F08C1002AFAD1704770476E
:10137000002001E001C1121F002AFBD170470000CC
:1013800008B5FFF767F8FFF765FE0E48016841F002
:1013900080010160016801F080010091016841F065
:1013A00001010160006800F001000090FFF70AFEF3
:1013B00000210548FFF723FD034804490068426AFD
:1013C0000A60FCE7303802401800002000000020CE
:1013D00000000000000000000102030406070809E5
:1013E000001400080000002018000000601300082E
:1013F00018140008180000204004000070130008B2
:1014000000000000000000000100000010000000CB
:08141000000000000024F400BC
:040000050800018965
:00000001FF
